:1000000012C019C018C017C016C015C014C013C044
:1000100012C011C010C00FC00EC00DC00CC00BC06C
:100020000AC009C008C011241FBECFE5D4E0DEBF5E
:10003000CDBF02D030C0E4CF81B3876081BB81E007
:1000400082BB2FE986E891E0215080409040E1F7A3
:1000500000C0000082E082BB2FE986E891E02150D9
:1000600080409040E1F700C0000084E082BB2FE9AF
:1000700086E891E0215080409040E1F700C0000008
:1000800012BA2FE986E891E0215080409040E1F7D4
:0A00900000C00000D4CFF894FFCFA9
:00000001FF
